:020000041000EA
:1000000000B50C4B00219960042159610A4919601F
:100010000A490B480160002159600121996001BC27
:10002000002800D0004707480749086003C880F34C
:10003000088808470000001800031F00180200038A
:10004000F40000180001001008ED00E000000000BE
:1000500000000000000000000000000000000000A0
:100060000000000000000000000000000000000090
:100070000000000000000000000000000000000080
:100080000000000000000000000000000000000070
:100090000000000000000000000000000000000060
:1000A0000000000000000000000000000000000050
:1000B0000000000000000000000000000000000040
:1000C0000000000000000000000000000000000030
:1000D0000000000000000000000000000000000020
:1000E0000000000000000000000000000000000010
:1000F0000000000000000000000000002CEC210DBA
:1001000000200420F7010010C3010010C5010010F9
:10011000C1010010C1010010C1010010C101001097
:10012000C1010010C1010010C1010010C701001081
:10013000C1010010C1010010C9010010CB01001065
:10014000CD010010CD010010CD010010CD01001037
:10015000CD010010CD010010CD010010CD01001027
:10016000CD010010CD010010CD010010CD01001017
:10017000CD010010CD010010CD010010CD01001007
:10018000CD010010CD010010CD010010CD010010F7
:10019000CD010010CD010010CD010010CD010010E7
:1001A000CD010010CD010010CD010010CD010010D7
:1001B000CD010010CD010010CD010010CD010010C7
:1001C00000BE00BE00BE00BE00BE00BEEFF3058054
:1001D000103800BEF2EB887108FE071038FE0710D9
:1001E0003802001090A31AE71E481F49086006C88D
:1001F00081F3088810471D480068002801D019487D
:10020000F3E70DA40ECC002902D000F012F8F9E7B4
:100210001749184A002000E001C19142FCD116495B
:100220008847164988471649884700BEFDE701C937
:1002300001C29A42FBD3704738FE0710C00000206D
:10024000D05500204853081000000420000004206E
:100250004853081000100420001004200000000083
:10026000704700000000000008ED00E0000000D032
:10027000D055002004AA002031470110D5020010FB
:10028000F1460110F8B5C04606480749091A8B1017
:10029000C90FC91810B5491003D0044B002B00D06A
:1002A000984710BDD0550020D05500200000000018
:1002B000054B10B5002B03D00449054800E000BFF2
:1002C000FFF7E2FF10BDC04600000000BC8C00201C
:1002D000B479061010B500F004F800F006F800201C
:1002E00010BD10B500F030FF10BD10B500F06AFF72
:1002F00010BD10B500F058FC10BD10B500F054FC56
:1003000010BD7047012A07D009D0032A05D0002A62
:1003100003D10023036000E001600020704701600A
:10032000FBE7012A07D009D0032A05D0002A03D110
:100330000023036000E00160002070470160FBE7DC
:10034000012A07D009D0032A05D0002A03D10023AF
:10035000036000E00160002070470160FBE7022AB3
:100360000AD007D8002A03D0012A03D1016001E096
:1003700000230360002070470B680360FAE710B5A4
:10038000012A02D10160002010BDFFF7E8FFFAE763
:10039000022A0AD007D8002A03D0012A03D101601B
:1003A00001E000230360002070470B680360FAE758
:1003B00010B5012A02D10160002010BDFFF7E8FF4F
:1003C000FAE7000010B5044801F00EFD01F0AAFDA7
:1003D00001F0E8FD10BDC046B879061010B5FFF772
:1003E000F1FF10BD10B501F09DFD01F091FD01F090
:1003F000D9FD10BD10B504000949006801F082FF65
:10040000002800D110BD074801F0EEFC2468200050
:1004100002F0AEFC0100200002F034FCF2E7C0461E
:10042000FC7D0020D879061010B5FFF7E3FF10BD62
:1004300010B5002015F042F9034BBFF35B8F01228A
:100440001A70BFF35B8F10BDAC77002010B5FFF7BB
:10045000EFFF10BD10B5030000681A00083290428B
:1004600003D09968013112F0A9FF10BD10B5024800
:10047000FFF7F0FF10BDC0460077002030B587B011
:10048000040005002C35280067F046FA17220021E9
:10049000684612F077FF200046301722002112F044
:1004A00071FF280067F060F96034BFF35B8F0123B0
:1004B0002370BFF35B8F07B030BD30B583B004004D
:1004C00005003435280067F027FA002301AA1380BD
:1004D0004422A3526134BFF35B8F01232370BFF327
:1004E0005B8F280067F040F903B030BDF0B583B0F2
:1004F00004000D00B323C95C4B1E9941C9B26523AA
:10050000C1544A4801F070FC260068366F1C39005F
:10051000300002F016FE01235840C0B280235B0079
:10052000E05400284CD12600A0362F00383739007F
:10053000300002F006FE01235840C0B20223FF3310
:10054000E05400284ED12600D8362F006F373900EE
:10055000300002F0B6FF01235840C0B281235B0097
:10056000E054002850D12600EC36833529003000B5
:1005700002F0A7FF01235840C0B20423FF33E05428
:10058000002846D180235B00E35C002B46D028493D
:100590000223FF33E35C002B42D0254A81235B001A
:1005A000E35C002B3ED0224B0420FF30205C00286F
:1005B0003AD01F4C1F48009401F016FC03B0F0BD68
:1005C0003900300002F0BAFE8821625864235A4391
:1005D0006250043162585A4362508022A1584B4302
:1005E000A350A0E73900300002F0A8FEC0216258F5
:1005F00064235A436250043162585A436250B8220D
:10060000A1584B43A3509EE73900300002F0ADFFE4
:10061000A9E72900300002F0A8FFB3E70649B7E7D1
:10062000054ABBE7044BBFE7034CC3E71C7A06103F
:10063000087A06103C7A0610107A0610F0B5972456
:100640000B5D03709823CA5C427099254A5D8270E5
:100650009A228E5CC6700E5D4F5D3E4306710C5D46
:100660008E5C34434471CC5C4D5D2C438471CB5C17
:100670008A5C1343C371002303729B33CA5C01334A
:10068000CB5C1B02134343819D23CA5C0133CB5CCB
:100690001B02134383819F23CA5C0133CB5C1B0283
:1006A0001343C381A123CA5C0133CB5C1B021343F8
:1006B0000382A323CA5C0133CB5C1B021343438236
:1006C000A523CA5C0133CB5C1B0213438382A7239F
:1006D000CA5C0133CB5C1B021343C382A923CA5CEF
:1006E0000133CB5C1B0213430383AB23CA5C01338E
:1006F000CB5C1B0213434383AD23CA5C0133CB5C49
:100700001B0213438383AF23CA5C0133CB5C1B0200
:100710001343C383B123CA5C0133CB5C1B02134375
:100720000384B423CA5C923BC2549333CA5C923BA9
:10073000C2549333CA5C923BC2549333CA5C923B1B
:10074000C2549333CA5C923BC2549333CA5C923B0B
:10075000C2549333CA5C923BC2549333CA5C923BFB
:10076000C2549333CA5C923BC2549333CA5C923BEB
:10077000C254F0BD70B504000D00FFF75FFF290003
:100780002000FFF7B3FE70BD10B50B481AF0C4F996
:10079000002801D1094810BD084C1022002120007A
:1007A00012F0F0FDFF2323702373054856F00EF876
:1007B00001481AF0CDF9EDE718600020AC76002072
:1007C000AD0E0010F8B5040006001036B44200D19A
:1007D000F8BD2378FF2B02D00025002D01D0103466
:1007E000F4E76B005B199B00E3185A68002A19D0E4
:1007F0009A686132BFF35B8F1278BFF35B8FD2B21E
:10080000002A0FD058686B005B199B00E3189968A9
:10081000227803681F692B00B8470120002140425D
:1008200017F022FD0135EDB2D7E710B50068FFF7EC
:10083000C9FF10BD10B507481AF06EF9002801D1A4
:10084000054810BD054855F0C1FF02481AF080F96F
:10085000F6E7C0462C60002068770020E50E001007
:1008600010B504008368002B02D0032201009847D2
:10087000200010BD70B5050004008034A54204D0EE
:10088000103C2000FFF7ECFFF8E7280070BD70B5C2
:10089000050080239B00C418A54205D0203C200001
:1008A0001030FFF7DDFFF7E7280070BD10B5044CEE
:1008B0002000FFF7ECFF20008038FFF7DBFF10BDC2
:1008C000D85B002010B5044C2000FFF7E0FF2000AB
:1008D0008038FFF7CFFF10BD3059002010B5094810
:1008E0001AF01AF9002801D1074810BD0648002166
:1008F00000F042FD054855F069FF02481AF028F95A
:10090000F2E7C0466060002088580020C50800104B
:1009100010B50400FFF7E2FF210000F047FF10BD13
:10092000F0B583B004000D0016001F00FFF7D6FFDE
:10093000009733002A00210000F0B4FE03B0F0BDA0
:1009400010B5FFF7CBFF00F059FD10BD10B5FFF754
:10095000C5FF00F037FE10BD10B509481AF0DCF8ED
:10096000002801D1074810BD0648012100F004FD10
:10097000054855F02BFF02481AF0EAF8F2E7C046A6
:1009800064600020305B0020AD08001010B5FFF758
:10099000E3FF00F033FD10BDF0B583B004000D009F
:1009A00016001F00FFF7D8FF009733002A00210030
:1009B00000F078FE03B0F0BD10B5FFF7CDFF00F0FA
:1009C00001FE10BD10B502E00A2010F08DFE01F00E
:1009D00093FA0028F8D09620400010F085FE01F030
:1009E0008BFA0028F3D010BDF0B591B0FFF7CCFE24
:1009F00005000023002B36D0FFF7E4FF04AA5F4B6D
:100A0000110051CB51C11B680B606421012016F00D
:100A100059FF012016F064FFFFF7B8FF060008AC8D
:100A20000C220021200012F0ADFC08220021200041
:100A300012F0A8FC00230B930895514B0B93514BDC
:100A40000A9323000122C8213000FFF7A5FF2000F0
:100A5000FFF706FF01F050FA029000280DD10024A4
:100A60000023039332E09A01D218920046495218AB
:100A7000191D89004A510133BCE701F0A1FA0400B5
:100A8000424801F0B1F9EBE71978FF2901D11033A1
:100A900023E0012624E03E4801F0A6F904E00BF033
:100AA00027F8019B03930024002E30D00AF0F2FFB8
:100AB0000BF013F8002303930024FFF77DFF0120C0
:100AC0000021404217F0D0FB019B029301F014FA81
:100AD000019007002B002A0010329A42D4D1002640
:100AE000002FDCD0029B002BDED101F069FA04005C
:100AF0000AF0F3FF0AF0C5FF03900028CBD00AF0FC
:100B0000D4FF244801F070F9029B0393CCE7002F37
:100B1000D3D0002CD1D001F053FA001B9623DB0078
:100B20009842CAD3039B002BC7D10AF0C9FF061E07
:100B3000C3D00AF0A6FF00281BD0174801F054F9D3
:100B40000CAF0C220021380012F01CFC08220021FE
:100B5000380012F017FC00240F94104B0F93104B29
:100B60000E933800FFF7D4FE3800FFF779FE0396A6
:100B7000A3E70C4801F038F9E2E7C046ACC4061020
:100B80002B0800107F030010FC7D0020787A0610EF
:100B9000F07A0610B07A0610207B0610E5030010EC
:100BA00005030010707B061010B588B0040001F03A
:100BB000CFF9002C08D1214BBFF35B8F1B78BFF31B
:100BC0005B8FDBB2002B0AD11C4BBFF35B8F1B7812
:100BD000BFF35B8FDBB2002B18D008B010BD0C2226
:100BE0000021684612F0CEFB08220021684612F070
:100BF000C9FB00230393124B0393124B02936846E5
:100C0000FFF786FE6846FFF72BFEE6E704AC0C22F2
:100C10000021200012F0B6FB08220021200012F073
:100C2000B1FB00230793084B0793084B0693200062
:100C3000FFF76EFE2000FFF713FECEE7AC77002033
:100C4000DD030010230300104D04001041030010C9
:100C500010B513780A1A884200D110BD190012F09D
:100C600091FBFAE730B583B0040005003C3528005D
:100C700066F052FE6B46DA1D0023137020005D30D3
:100C800021006031FFF7E4FF280066F06DFD03B03E
:100C900030BDF8B5CE46474680B5040001239846DE
:100CA0000127037001339C46437004268670082098
:100CB000E070052121710733994663710622A27104
:100CC0000A25E57100252572434663816346A381A9
:100CD000E6812082083060821030A0822030E082DD
:100CE0007E3398462383FC366683C130FF30A08371
:100CF0008020C000E0838020000120842220255431
:100D000001230130235402230130235401300323F3
:100D100023540423013023540130215423316254DD
:100D200023322139A15408210132A15401324B460A
:100D3000A35420004430293A002112F023FB200064
:100D400046301722002112F01DFB20005D300322E7
:100D5000002112F017FB6023E5540133E554013301
:100D6000E5540133E5540133E5540133E554A566F8
:100D700080235B02E36625676567A567E5674246F2
:100D8000A5500432A3500432A5500432A5500432B9
:100D9000A3500432A3500432A35022009C32177097
:100DA0000132157001321570A022A5500432A350F3
:100DB0000432A5500432A5500432A5500432A55087
:100DC0000432A5500432A3500432A5500432A55079
:100DD0000432A3500432A3500432A3502200D43270
:100DE00017700132157001321570D822A5500432E7
:100DF000A3500432A5500432A3500432A35004324D
:100E0000A5500432A3500432A5500432A35004323A
:100E1000A350A5550223FF33E5540133E5540423C1
:100E2000FF33E55420002C3010F0AAF820003430B5
:100E300010F0A6F820003C3010F0A2F82000FFF7D8
:100E40001DFB2000FFF739FB2000FFF70BFF200000
:100E5000C0BCB946B046F8BD70B50024054D002CA5
:100E600000DA70BD2800FFF714FF013C0535FF359F
:100E7000F5E7C046FC7D002010B50400006800289E
:100E800002D003685B68984700232360200010BDF0
:100E900070B5040005001035231D9D4204D00C3DA3
:100EA0002800FFF7E9FFF7E7200070BD10B5054CFB
:100EB000054B9C4204D0103C2000FFF7E9FFF7E708
:100EC00010BDC046BC760020AC76002010B50400F2
:100ED0000068002802D0242112F070FA0023236059
:100EE000200010BD10B50248FFF7F0FF10BDC0464E
:100EF0006877002010B50B68002B0DDB934205D9F5
:100F00005200934202D20A60002A08DB08680130CE
:100F100008D412F043FA10BD034819F05DFF034BEB
:100F20000B60F3E719F010FFB47B0610FFFFFF7FA3
:100F300010B5012A04D0002A04D012F029FA01E0E9
:100F40000B78037010BD70B582B004000E00551A06
:100F500001950F2D0ED8009420682A003100FFF76C
:100F6000E7FF002200920199616023685B181A7004
:100F700002B070BD002201A9FFF7BCFF2060019BF9
:100F8000A360E8E770B504000D00030008330360B8
:100F900000290AD008005BF0CDFA2A1800232900A6
:100FA0002000FFF7D0FF200070BD014819F0FCFEC3
:100FB000CC7B061010B513780A1A884200D110BDF8
:100FC000190012F0DFF9FAE730B583B0050004002C
:100FD00010346B46DA1D002313702100FFF7EAFF7F
:100FE00007490F22280058F065FB6A1CFF3202E017
:100FF000FF2323700134A242FAD1280003B030BD90
:101000009CC4061030B5C1B0050066F085FC002414
:1010100008E02000FD30FF3080210003490166F028
:1010200013FC0134032CF4D96846FFF7CDFF0024EC
:1010300009E0FE235B01E0188022000252006946AD
:1010400066F0BAFB01343F2CF3D9280066F08CFB24
:1010500041B030BD10B504000FF092FF05490648BD
:101060005BF0DEF9002801D1200010BD2000FFF761
:10107000C9FFF9E79CC4061000C01F1010B507484F
:1010800019F04AFD002801D1054810BD0448FFF7BA
:10109000E1FF024819F05CFDF6E7C0465C60002005
:1010A000A077002010B582B00400064901AAFFF71E
:1010B00069FFFFF7E3FFA06100232377200002B060
:1010C00010BDC046007C061010B5084819F024FD7C
:1010D000002801D1064810BD0548FFF7E3FF054889
:1010E00055F074FB014819F033FDF3E71C60002054
:1010F000007700206D04001070B584B00500FFF784
:10110000E3FF06000C220021684612F03BF908229A
:101110000021684612F036F9002303930096084B2D
:101120000393084B029396216B4601228900280005
:10113000FFF7F6FB6846FFF793FB04B070BDC046AF
:1011400029040010B103001070B5B0B000F048FFE2
:101150000AF070FC04001848210000F045FE002C45
:1011600014D1FFF7B1FF050001F0B2FC0024002C00
:1011700012D0FFF75FFB0400280001F0F9FD010029
:101180000E4A200002F0C4FE30B070BD0AF056FCDA
:101190000B4800F029FEE4E722002900684601F030
:1011A00071FCA3011B199B00044818186946FFF73E
:1011B000E1FA0134E4B2DAE7147C0610FC7D002089
:1011C000447C061070B513F087FD1C4813F01AFE1E
:1011D000FFF77AFF01F0CCFD642808D10120FFF76A
:1011E000E3FC08E0FFF7B2FB642010F07DFA14F096
:1011F0005BFA0028F6D0FFF7A3FBFFF77DFFFFF7B0
:1012000019FB0568FFF7A2FB0024002C08D0012081
:101210000021404214F0B4FD012010F065FAF1E71E
:10122000A20112199200064BD2182B685B682100AC
:10123000280098470134E4B2E7E7C046E909001006
:10124000FC7D002010B5FFF707FE10BD70B5030050
:10125000884203D170BD180000E018002033994285
:10126000F8D09A69002AF9D08269002AF3D09D68E3
:10127000DA688668C4689442EFD8EFD1AE42ECD801
:10128000ECE770B50300884203D170BD180000E0A0
:10129000180020339942F8D09A69002AF9D082695F
:1012A000002AF3D09D68DA688668C4689442EFD853
:1012B000EFD1AE42ECD8ECE710B580239B00C41808
:1012C00000222100FFF7DDFFA04205D08369002B3B
:1012D00006D0C168806810BD01204042C117FAE7FE
:1012E00001204042C117F6E770B50600040007254B
:1012F00012E010220021200012F044F80C220021FC
:10130000200012F03FF808220021200012F03AF8E5
:101310000023E360013D1034002DEADA300070BD97
:1013200070B504000025056045600022002382603E
:10133000C360060010360C320021300012F022F893
:1013400008220021300012F01DF8E561200070BD78
:1013500070B5060004000F2509E0202200212000BE
:1013600012F010F82000FFF7DBFF013D2034002DC4
:10137000F3DA300070BD000070B504000D000126E6
:1013800046600023037200220023026143610120B2
:101390000FF09AFAA06101200FF096FAE061A369BC
:1013A000124A944663449B0023626044800060625A
:1013B00020002830FFF798FF2000A830FFF7C8FF73
:1013C0002B005A1E934123609E40094B1E602068EB
:1013D000002D08D107490FF057FB206801210FF0BD
:1013E00031FB200070BD0449F5E7C04640000034E1
:1013F00038600540291900101D19001003004068CD
:10140000421C5A607047000010B5124B1B68002B3D
:1014100015D0104B1968EFF3108372B60A68002AD2
:10142000FCD0BFF35F8F0C4AD0689168094A1268FC
:10143000BFF35F8F0024146083F3108810BD012078
:101440000FF042FA054B9C4660448000014B186047
:10145000DFE7C046B0770020004005404000003480
:1014600070B50400426AEFF3108572B61368002B62
:10147000FCD0BFF35F8F237A002B07D0636ABFF3E2
:101480005F8F00221A6085F3108870BD23680126E3
:1014900032009A40074B1A60FFF7B6FF2061616186
:1014A0002672636ABFF35F8F00221A6085F310888B
:1014B000EBE7C0463470054010B5FFF70FFAFFF7B1
:1014C000CFFF10BD10B504008368002B05D00322A8
:1014D000010098470023A360E360200010BD0000D6
:1014E000F0B5C64600B507000D00426AEFF3108361
:1014F00072B698461368002BFCD0BFF35F8F3C0098
:10150000A834AA239B00FE18002209E02000103016
:101510000021FFF7D7FF00232360636001222034FE
:10152000B44203D02368AB42F9D1EFE7002A19D0C7
:101530003A68012393400F4A13603800A830FFF740
:10154000BBFE002904DB3B6804339B000A4A985029
:101550007B6ABFF35F8F00221A6088F3108880BC1B
:10156000B846F0BD7B6ABFF35F8F1A6088F31088BE
:10157000F5E7C046386005400040054070B50400FE
:101580000D000C22002111F0FDFE08220021200098
:1015900011F0F8FE0023E360AB68002B07D00222B5
:1015A000290020009847EB68E360AB68A360200047
:1015B00070BD10B58368002B02D0C368984710BD7A
:1015C00019F088FCF0B5C64600B584B00600026A82
:1015D000EFF3108572B61368002BFCD0BFF35F8F5A
:1015E00034002834A8239846B044444522D0A36848
:1015F000002B1FD021006846FFF7C0FF002120000C
:10160000FFF760FF336ABFF35F8F00221A6085F334
:1016100010886846FFF7CDFF326AEFF3108572B687
:101620001368002BFCD0BFF35F8F6846FFF718F9F3
:101630001034DAE7336ABFF35F8F00221A6085F354
:10164000108804B080BCB846F0BD70B582B06B465F
:101650006A46040060CC60C20A0060CA60C011CB58
:1016600011C102B070BD70B505000C00FFF7EDFFB1
:10167000AB68A268AA60A360EB68E268EA60E36016
:1016800070BD30B585B004006846FFF777FF2100D4
:101690006846FFF7E8FF6846FFF7E2F8200005B06C
:1016A00030BD0000F0B5D6464F464646C0B584B0C2
:1016B00006000D0090460393426AEFF3108372B662
:1016C00099461368002BFCD0BFF35F8FA8239A467E
:1016D000B244AA239B00F4185346A34212D01A68BE
:1016E000AA4201D02033F8E7736ABFF35F8F00226C
:1016F0001A6089F31088002004B0E0BCBA46B146F5
:10170000A846F0BD326801239340264A1360264B59
:101710009B6A002100220091019200930023019313
:10172000FA2292000023404611F026FC009A019B09
:10173000801859415746A7422BD0BB69002B01D0D6
:101740002037F8E7B860F960039B002B00D198467A
:1017500043467B60380010300C99FFF792FF3D60E4
:10176000002221005046FFF771FD844208D08369B2
:10177000002B05D08168336804339B000A4A9950D6
:10178000736ABFF35F8F00221A6089F3108801200B
:10179000B2E7736ABFF35F8F00221A6089F3108883
:1017A0000020A9E7386005400040054070B50400FE
:1017B000026AEFF3108572B61368002BFCD0BFF3FA
:1017C0005F8F200028302200A83290420FD083681B
:1017D000002B01D01030F8E7FFF753FF236ABFF367
:1017E0005F8F00221A6085F31088012007E0236ACA
:1017F000BFF35F8F00221A6085F31088002070BD50
:10180000F0B5DE4657464646C0B586B005000268CC
:10181000012393403F4A1360FFF7F6FD80460F0017
:101820006A6AEFF3108372B69A461368002BFCD0F5
:10183000BFF35F8F2B7A002B05D12C00A834AA238D
:101840009B00EE183AE06B6ABFF35F8F00221A60CC
:101850008AF3108858E010239B46A344594602A8F7
:10186000FFF78CFE6268002A35D0A068E16853015A
:101870009B1A9B009B18DB00009300230193009AA6
:10188000019B80185941A060E1606B6ABFF35F8FD4
:1018900000221A608AF3108802A92800FFF786FF49
:1018A0006A6AEFF3108372B69A461368002BFCD075
:1018B000BFF35F8F02A8FEF7D3FF2034B44211D0EC
:1018C000A369002BF9D0A268E368BB42F5D8C2D166
:1018D0004245F2D8BFE700215846FFF7F3FD002349
:1018E0002360D2E72800A830FFF7E6FC002904DBDC
:1018F0002B6804339B00084A98506B6ABFF35F8FD4
:1019000000221A608AF3108806B0E0BCBB46B246DB
:10191000A846F0BD347005400040054010B5FFF703
:101920001BF8FFF76DFF10BD10B5FEF7D7FFFFF7EF
:1019300067FF10BD10B582B00C00144BC3185A429B
:101940005341134A5B009B5E8B4204D06B46DA1D09
:101950001470002115E06B46DA1D0D231370002171
:101960000029F3D183699B06FCD41378036001310D
:101970000132F5E783699B06FCD4137803600131DB
:1019800001320029F6D002B010BDC0460080FCBF75
:10199000ECA9002030B583B004000D00002313E053
:1019A0006B46DA1D1170002006E0A3699B06FCD48B
:1019B00013782360013001320028F6D02B780D3BDC
:1019C0005A425341DBB201352978002905D0002B5A
:1019D000E6D12000FFF7AEFFF0E703B030BD000016
:1019E000F0B500282CD000292AD080231B01994271
:1019F00005D3144B9C466144401880210901124BC9
:101A00001A68551880231B019D4209D90F4C236881
:101A100001335B055B0D23600B4B013A1A60EEE767
:101A200000228A420AD2875C094C2368094EF75487
:101A300001335B055B0D23600132F2E7024B1D6051
:101A4000F0BDC04600F8FFFFF86C0020F46C0020E9
:101A5000F06C0020FC6C002010B5064B1B78002BAE
:101A600000D010BD04480FF08BFA024B01221A700F
:101A7000F7E7C046F6A90020FC740020C3684A229C
:101A80009343C360423A1343C360704710B50400E8
:101A90000A2904D833D889001C4B5B589F46642917
:101AA00029D065292BD11A4925F06AFE2BE0194966
:101AB00025F066FE27E0184925F062FE23E017496D
:101AC00025F05EFE1FE0164925F05AFE1BE0154981
:101AD00025F056FE17E0144925F052FE13E0134995
:101AE00025F04EFE0FE0124925F04AFE0BE01149A9
:101AF00025F046FE07E0104925F042FE03E00F49BD
:101B0000200025F03DFE200010BDC046BCC40610DC
:101B1000CC7C0610747C06107C7C0610847C06103D
:101B2000907C06109C7C0610A47C0610A87C0610F5
:101B3000B07C0610BC7C0610C47C0610D87C061055
:101B400010B5E121490206480FF0D4FF0221002020
:101B50000EF0A0FC022101200EF09CFC10BDC0463E
:101B60000040034070B5FFF777FF074D280065F090
:101B7000D3FE064B1C68631E9C41E4B2280065F04E
:101B8000F3FD200070BDC046FC740020F86C0020FE
:101B900070B505000C00002825D0002901D10800EF
:101BA00070BDFFF759FF114865F0B6FE104B1B687A
:101BB000A34201D300220BE01C00FBE70D490B6898
:101BC0000D48C05CA85401335B055B0D0B6001320E
:101BD000A242F3D3064A13681B1B1360034865F047
:101BE000C3FD2000DCE70020DAE7C046FC740020DB
:101BF000F86C0020F46C0020FC6C002030B583B041
:101C0000040001910368020008329A4205D08268FC
:101C1000019B934203D803B030BD0F22F8E701A91E
:101C20002000FFF767F90500216862680132FFF7BD
:101C30007FF92000FEF70EFC2560019BA360EAE718
:101C4000F0B5CE46474680B583B004000E001700BD
:101C500099464068431A9B1A98460A9B9C466044E2
:101C6000801A01902368220008329A421BD0A26891
:101C700001A92000FFF73EF90500002E15D14B46C3
:101C8000002B02D00A9B002B14D14346002B17D106
:101C90002000FEF7DFFB2560019BA36003B0C0BC02
:101CA000B946B046F0BD0F22E2E721683200FFF7E7
:101CB0003FF9E4E7A8191A004946FFF739F9E4E7C4
:101CC0000A9BF0182168F619891928184246FFF76F
:101CD0002FF9DDE770B582B004000B00416855189C
:101CE000006826000836B0420CD0A668AE4210D379
:101CF000002A09D1656023685B1900221A70200050
:101D000002B070BD0F26F1E740181900FFF710F977
:101D1000F0E7009200222000FFF792FFEAE70000C0
:101D200010B54468044B1B1B9A4202D8FFF7D2FF40
:101D300010BD024819F050F8FFFFFF7FE07C06104D
:101D4000F8B504000F0015001E00030008330360FF
:101D5000002343600372069BD118FFF74FFF2A0050
:101D600039002000FFF7DCFF069A31002000FFF762
:101D7000D7FF2000F8BD70B584B004000D00160038
:101D800008005AF0D7FB02003368716803A801907D
:101D9000009129002000FFF7D3FF200004B070BDA0
:101DA00070B586B00500FFF757FE0C4E300065F0A9
:101DB000B3FD0B492A006846FFF7DDFF009909488B
:101DC000FFF7E8FD00980199FFF70AFE300065F083
:101DD000CBFC6846FEF73EFB06B070BDFC740020ED
:101DE000F87C0610004003400FB430B5C9B04CABCE
:101DF00004CB4693802106AD4900280012F0E2FB97
:101E000047AA29006846FFF7BDF86846FFF7C8FFF4
:101E10006846FEF71FFB49B030BC08BC04B0184749
:101E2000F0B5B9B007000E006C46684626F0E0FA3F
:101E3000009B0C3B18682018FFF720FE009B0C3B12
:101E40001B68E418200019F08DF874233022E25446
:101E50000024002501E00134A4B2B44215D2684642
:101E6000009B0C3B1B68C31802229A60395D25F069
:101E700057FD104925F084FC0135102DEBD10E499A
:101E8000684625F07DFC0025E5E70B49684625F00E
:101E900077FC32AC01A9200032F038FE2000FFF7B9
:101EA0007FFF2000FEF7D6FA684625F071FE39B0B4
:101EB000F0BDC04688B4061098A9061070B584B06D
:101EC00006000C0001AB02AA03A90FF0FFFE051EDD
:101ED00004D1002C09D1200004B070BD019A0299F0
:101EE00003980FF0BFFE2C00F5E7024831000EF01A
:101EF0006DFCC046007D061010B5044B002B02D0CF
:101F000000F00EF910BD0020FCE7C04621210010B2
:101F100010B5034B002B01D000F03EF910BDC046B8
:101F20009921001010B50948FFF75EFFFFF7C4FACA
:101F300012F0D2FEFA24640020000FF0D5FB13F05B
:101F4000A9FB20000FF0D0FB10BDC046347D061069
:101F500010B504000F4865F0DFFC0F4B002B02D0DA
:101F6000200000F094F80D4B002B02D0200000E080
:101F700000BF0B4B002B06D0002C08D00020FF2107
:101F8000002200E000BF034865F0EEFB10BDFF201B
:101F90000021F5E7047500208F20001000000000EC
:101FA0000000000010B50348FFF71EFF024B034A74
:101FB0001A60FEE75C7D06100CED00E00400FA05F7
:101FC00010B50FF0BBFC002905D0FA2292000023C7
:101FD00010F006F910BDFA21890010F0C3F8F9E7F6
:101FE00010B501211B48FFF769FF002805D1012129
:101FF0001948FFF763FF002809D012F0F3FC174BD4
:102000001B68002B06D01648FFF7EEFE10BD1548E2
:102010000EF0DCFB114C20000EF0B2FF200065F04A
:102020007BFC114B002B01D0FFF78AFD0F4B002BDF
:1020300001D000F021F80E4B002B01D000E000BFD2
:102040000C4B002B01D000F07DF8044865F08CFBB0
:10205000D9E7C04680A90300C0D401000475002060
:10206000807D0610687D0610411B0010792000104D
:10207000000000004521001010B519200EF070FB83
:10208000D0231B06802292045A629A6110BD002858
:1020900005D0D0231B06802292045A617047D023BA
:1020A0001B06802292049A61F8E710B50400020032
:1020B0000C2100200EF0C8FA22000C2101200EF0A5
:1020C000C3FA10BD10B5D0231B065B68DB0706D42E
:1020D000D0231B065B689B070BD4002200E0012283
:1020E000084BBFF35B8F1A70BFF35B8F002802D1E0
:1020F00010BD0122F4E701235A40D0B2FFF7D5FF0B
:10210000F6E7C0469C6C002010B504000020FFF7E5
:10211000CCFF012C00D910BD0120FFF7D3FFFAE757
:1021200010B50120FFF7CEFF054BBFF35B8F18788A
:10213000BFF35B8FC0B2431E9841C0B210BDC04612
:102140009C6C002010B500200EF00AFBD024240661
:102150000123A3620122002100200EF0B5F9012025
:102160000EF0FEFA0223A3620122002101200EF0EC
:10217000ABF9084C230000220C2100200EF08CFA51
:10218000230000220C2101200EF086FA0120FFF727
:1021900099FF10BD0921001010B5074BBFF35B8FED
:1021A00000221A70BFF35B8F0020FFF77EFF012033
:1021B000FFF788FF10BDC0469C6C0020F0B5C646F6
:1021C00000B50C000E004E43884637004F437C4359
:1021D000012580450BD8B04208D3B8420BD3A042AA
:1021E0000BD321000FF0BEFF0435F2E701352800C4
:1021F00080BCB846F0BD0235F9E70335F7E70000CB
:1022000010B54B680E2B09D8F02A09D80868064982
:102210005AF006F9002805D0012000E0002010BD8A
:102220000020FCE70020FAE79CC40610F0B5CE467B
:10223000474680B583B080460E00019299461A0049
:10224000FFF7DEFF071E05D1380003B0C0BCB9465A
:10225000B046F0BD404665F05FFB01253E2D1AD823
:102260000F4BEC182402316820005AF0D9F80028EE
:1022700007D00C4920005AF0D3F800280BD00135C4
:10228000ECE7210010314A46019811F081F84046F0
:1022900065F06AFAD8E7404665F066FA0027D3E7AA
:1022A000C01F10009CC4061070B505000C000E0085
:1022B0002C36300065F030FB210046311722280013
:1022C00011F066F86034BFF35B8F00232370BFF317
:1022D0005B8F300065F048FA280070BD052070471C
:1022E000064B074A934204D01A788A4203D001333E
:1022F000F7E7002070470120FCE7C04640C5061004
:102300004BC50610F0B587B006006846FFF7CCFF56
:102310002B4818F001FC002817D16B465A7801337E
:102320005B781B0213431B046A4615781D431B028E
:1023300003D5244B1B68AB4217D0224B1D60224BA8
:1023400000221A70002007B0F0BD6B465A780133A6
:102350005B781B0213431B046A4612781343194A25
:102360001360174818F0F4FBD7E7174A13780133C6
:10237000DBB21370042B1CD9130000221A70134C0B
:1023800000E00834124B9C420AD02368AB42F8D1DB
:10239000277939003000FFF7A3FF0028F1D000E0D3
:1023A0000027002F07D0337FBB4206D037770120AC
:1023B000C9E70020C7E70020C5E70020C3E7C04603
:1023C0002060002020770020F7A90020E8C4061034
:1023D00040C50610F0B5B5B007000E001400144952
:1023E000C92201A810F0D4FF013E11E064212000B1
:1023F0000FF0B8FE4D00642120000FF0B3FE040082
:102400006A1C01AB9A5CBA55721E5B5DBB54023EFE
:10241000632CEBD8092C08D96400621C01AB9A5CD0
:102420007A701B5D3B7035B0F0BD30343C70FAE71C
:10243000947D0610B0B507000C00083038600B68BA
:102440000D0008359D420AD03B608B68BB60636815
:102450007B6025600023636023723800B0BD4B6849
:102460005A1C0133F3D0290010F092FFEFE770B54A
:10247000B2B004000E00684625F0BAFF3178684615
:10248000FFF704FB01A9200032F040FB684625F06D
:102490007FFB200032B070BD10B582B0040003494C
:1024A00001AAFEF76FFD200002B010BD607E06108D
:1024B00010B582B00400034901AAFEF763FD2000B5
:1024C00002B010BD6C7E061082B0F0B583B004007F
:1024D0000D0008920993FFF791FB2668082200215E
:1024E000684610F04FFF00942D23337008AB187826
:1024F0000A9A09993018FFF76DFF01956560236806
:102500005B1900221A7003B0F0BC08BC02B0184777
:1025100070B586B005000C00CE0F002917DB0A212C
:102520002000FFF74BFE03002A0008322A60002239
:102530006A602A7203AA16700490059431180094F8
:10254000039A2800FFF7C0FF280006B070BD4C4278
:10255000E5E70000F0B5C64600B5224CA5441600DC
:1025600098460F02FE235B03FD182D0B2D038023DD
:102570005B05E91880246401220040A810F008FFE0
:102580002100280065F060F940ACE4196846FEF7C8
:102590001BFD802252006946200010F0F9FE3168D0
:1025A0007268200057F086F873680022E254200019
:1025B00010300D4B6B441A68414610F0E9FE0024C0
:1025C00008E0200240A9091880224019520065F055
:1025D000F3F801340F2CF4D988235B019D4480BCAF
:1025E000B846F0BD00EFFFFF18110000F0B5D64669
:1025F000474680B585B080460F0003929A461A0080
:10260000FFF7FEFD061E05D1300005B0C0BCBA467E
:10261000B046F0BD404665F07FF901253E2D1CD83F
:10262000104BEC1824021049200059F0F9FE002844
:1026300007D03968200059F0F3FE002801D0013599
:10264000ECE753460093039B3A0029004046FFF70E
:1026500081FF404665F088F8D6E7404665F084F88B
:102660000026D1E7C01F10009CC4061010B5012A37
:1026700004D0002A04D056F021FF01E00B7803704B
:1026800010BD0000F0B5C64600B584B0040002934A
:102690000A9E4568531B2648844663449E4224D8BC
:1026A0007719BF1A236820000830984220D0A0680C
:1026B000B84236D358188046691A891A029803908E
:1026C000984202D35B19984214D9002901D0B24232
:1026D00018D1002E1FD167602368DB1900221A7001
:1026E000200004B080BCB846F0BD124818F074FB5E
:1026F0000F20DDE70191009603004146200026F0FF
:1027000051F8E8E713004344424690190A001900C3
:10271000FFF7ACFFDDE7320002994046FEF708FC08
:10272000D9E70096029B2000FFF78AFAD3E7C0465C
:10273000FFFFFF7F787E061020B582B0150042684B
:10274000914209D8521AAA4200D92A00049D009544
:10275000FFF798FF02B020BD034D044813000A00A4
:10276000290018F051FBC046947E0610AC7E06107E
:1027700070B582B005000E001400100059F0DAFEAA
:1027800000902300002231002800FFF7D5FF02B09F
:1027900070BDF0B583B00500080014004E685268A3
:1027A00091190368070008379F4215D08768B9421E
:1027B00008D92768BC4627000837BC450ED0A76853
:1027C000B9420DD92168FFF7ABFA01002800FFF7E5
:1027D00031FE280003B0F0BD0F27E8E70F27EFE731
:1027E0000096002200212000FFF7A6FF010028002C
:1027F000FFF720FEEDE70000F0B58FB004001700F2
:102800000C4901AD07AA2800FEF7BCFB08AE390051
:102810003000FFF77DFE320029002000FFF7B9FFEE
:102820003000FDF717FE2800FDF714FE20000FB062
:10283000F0BDC046E47E0610F0B5CE46474680B5F2
:10284000B7B006000D0014006F46684600F0EAFAC3
:10285000AB69994630AB9846220029001800FFF773
:10286000CBFFBE236A4641464846FFF7DFFC4046A1
:10287000FDF7F0FD3B78A3420AD1BE226946300045
:1028800010F086FD300037B0C0BCB946B046F0BD90
:102890000348FFF7A9FA300000F0C4FAF2E7C04697
:1028A000F07E0610F0B58FB0040017000C4901ADA2
:1028B00007AA2800FEF766FB08AE39003000FFF7D4
:1028C00027FE320029002000FFF763FF3000FDF7EC
:1028D000C1FD2800FDF7BEFD20000FB0F0BDC046D1
:1028E000207F0610F0B5C64600B58CB005000E007E
:1028F00014001378013BDBB2072B2BD8002900D042
:102900000026FFF70FFBAB699846320029006846A6
:10291000FFF7C8FF0123220069464046FFF766FE25
:102920006846FDF797FDAF69227806AE29003000B2
:10293000FFF762FFBE23220031003800FFF756FE8A
:102940003000FDF787FDFFF72DFB01200CB080BCA8
:10295000B846F0BD0020F9E7F0B5CE46474680B551
:1029600095B00700914698466B46D97143461B784F
:10297000013BDBB2072B53D8002A01D00023994634
:10298000284C00E00134284DAC4206D026786B4636
:10299000DD79AE42F6D1012300E00023002B04D103
:1029A0003800FFF79BFC6B46D871FFF7BBFABD6997
:1029B00002AC39002000FFF77BFD01236A46073295
:1029C00021002800FFF712FE2000FDF743FDBD693E
:1029D00008AC4A4639002000FFF764FF0123424655
:1029E00021002800FFF702FE2000FDF733FDBD693E
:1029F00043461A780EAC39002000FFF7FDFEBE23D7
:102A0000424621002800FFF7F1FD2000FDF722FDDE
:102A1000FFF7C8FA012015B0C0BCB946B046F0BDFA
:102A20000020F8E740C506104BC5061070B588B009
:102A30000A1E19D16B46DC1D00232370866902AD86
:102A400001002800FFF72EFF01232200290030009B
:102A5000FFF7ECFB2800FDF7FDFC2078431EDBB2FE
:102A6000072B06D808B070BD0448FFF7BDF9012058
:102A7000F8E70348FFF7B8F90120F3E72C7F0610C9
:102A8000607F061070B504000D0011002800FFF7EC
:102A9000CDFF020029002000FFF7CEFE200070BD10
:102AA00070B504000D00080059F044FD0200616893
:102AB000054B5B1A984204D829002000FFF70AF959
:102AC00070BD024818F088F9FFFFFF7FE07C061018
:102AD000F0B5C64600B5E2B080465F48FFF784F91E
:102AE000C7246C440023237043469E6932AD41469F
:102AF0002800FFF7D1FC0123220029003000FFF756
:102B000095FB2800FDF7A6FC2178F82931D0534821
:102B1000FFF76AF943469869FEF774FA5048FFF7E1
:102B200063F94046FFF7DAFBC6256D44287043463B
:102B30009E6938AC41462000FFF7BAFC01232A0009
:102B400021003000FFF752FD2000FDF783FC4548CF
:102B5000FFF74AF90022002A0FD04348FFF744F953
:102B600001A800F05FF94148BE21FFF73DF90024BC
:102B700052E03F48FFF738F96AE0541CE4B201AB79
:102B80001C7043469E693EAD41462800FFF78AFE11
:102B9000012301AA29003000FFF728FD2800FDF7D6
:102BA00059FC2200D7E70134E4B201AE3470434649
:102BB0009F6944AD220041462800FFF71DFEBE2359
:102BC000320029003800FFF711FD2800FDF742FC14
:102BD000317856AD2800FFF79BFC264A00212800DB
:102BE000FFF7C6FD010050AE3000FFF723FC22497D
:102BF0003000FFF755FF01004AAF3800FFF71AFC1D
:102C00003800FFF7CDF83800FDF724FC3000FDF761
:102C100021FC2800FDF71EFC072CC4D91748FFF73C
:102C2000E3F8C5256D44F8232B7043469E695CACE0
:102C300041462000FFF730FC01232A00210030002C
:102C4000FFF7D4FC2000FDF705FC0D48FFF7CCF89A
:102C500062B080BCB846F0BD9C7F0610D07F0610E5
:102C6000F07F0610088006102880061044800610A9
:102C7000B07F061058800610648006107080061021
:102C800084800610F0B5C64600B5ACB004006B46B3
:102C9000D971C9B2FFF724FB00283DD020AD07232E
:102CA0006B44984619002800FFF7E1FB2D4A0021EC
:102CB0002800FFF75DFD01001AAE3000FFF7BAFBF8
:102CC00029493000FFF7ECFE010014AF3800FFF790
:102CD000B1FB3800FFF764F83800FDF7BBFB3000AC
:102CE000FDF7B8FB2800FDF7B5FBFFF71BF9A66958
:102CF00026AD21002800FFF7DBFB01234246290017
:102D00003000FFF773FC2800FDF7A4FBFFF74AF93A
:102D10002CB080BCB846F0BD0EAC6B46D91D20006F
:102D2000FFF7A5FB114A00212000FFF721FD01005C
:102D300008AD2800FFF77EFB0B492800FFF7B0FE27
:102D4000010002AE3000FFF775FB3000FFF728F8F6
:102D50003000FDF77FFB2800FDF77CFB2000FDF72E
:102D600079FBD5E7C480061098A906109880061054
:102D7000F0B59BB00400007F002801D01BB0F0BD6F
:102D80006B46DD1C00232B70A76901AE21003000CB
:102D9000FFF78EFB01232A0031003800FFF746FAC7
:102DA0003000FDF757FB2D7829002000FFF798FA37
:102DB000002807D11848FFF717F82000FFF78EFA10
:102DC0002077DBE7672169440D7013AD2800FFF71A
:102DD0004EFB124A00212800FFF7CAFC01000DAE8D
:102DE0003000FFF727FB0E493000FFF759FE0100C6
:102DF00007AF3800FFF71EFB3800FEF7D1FF3800A1
:102E0000FDF728FB3000FDF725FB2800FDF722FB2E
:102E10006B46D8782077B1E700810610E080061075
:102E200098A90610F0B50122002100234370431C2D
:102E300000245C709C70DC701C715C7101349C71AE
:102E40000024DC711C725C729C72DC721C735C73FB
:102E50009C73DC731C745C749C74DC741C755C75F2
:102E60009C75DC751C765C769C76DC761C775C77D2
:102E700001349C770024DC77203400251D55013473
:102E80001D5501341D5501341D5501341D550134A6
:102E90001D5501341D5501341D5501341D55013496
:102EA0001D55013401351D55013400251D550134D2
:102EB0001D5501341D55013401351D5501340025C2
:102EC0001D5501341D5501341D55013401351D5565
:102ED000013400251D5534331A7001331970013344
:102EE00019703823C1540133C1540133C154013323
:102EF000C1540133C1540133C15401330131C154B0
:102F000001330021C1540133C1540133C154013391
:102F1000C1540133C1540133C1540133C15401338D
:102F2000C1540133C1540133C1540133C15401337D
:102F3000C1540133C1540133C1540133C15401336D
:102F4000C1540133C1540133C1540133C15401335D
:102F5000C1540133C1540133C1540133C15401334D
:102F60000131C15401330021C1540133C154013333
:102F7000C1540133C1540133C1540133C15401332D
:102F8000C1540133C1540133C1540133C15401331D
:102F9000C15401330131C15401330021C154013303
:102FA000C1540133C15401330131C15401330021F3
:102FB000C1540133C1540133C15401330131C154EF
:102FC00001330021C15403006C331A7001331970AE
:102FD000013319706F230022C25403006F335A70FB
:102FE0009A70DA701A715A710132323C9C71002465
:102FF000DC711C725C729C72DC721C735C73013439
:103000009C730024DC731C745C7401349C74002475
:10301000DC748323C454030083335C709C70DC70C5
:103020001C715C7101349C710024DC711C725C7237
:103030009C72DC721C735C7301349C730024DC731F
:103040001C745C7401349C740024DC74027097233B
:10305000C25402350133C55404340133C454913B86
:103060009A26835501360127875506009B3600278F
:1030700077709D260237875506009D3600277770AA
:103080009F260437875506009F3600277770A126B4
:10309000083787550600A13600277770A32610371A
:1030A00087550600A33600277770A5262037875559
:1030B0000600A53600277770A726403787550600FB
:1030C000A73600277770A926803F87550600A936C6
:1030D00000277770AB2687550600AB36013777702F
:1030E000AD26002787550600AD3602377770AF262C
:1030F000002787550600AF3604377770B1260027C2
:1031000087550600B13608377770B32682550136E9
:103110008155B5314254B53285540132B2398154AA
:10312000013284540132023181540132013181541F
:1031300001320131815401328354B533B33AC25460
:10314000F0BD8EB00A784B781B0213438A781204C4
:103150001A43CB781B06134301930268934202D0B3
:1031600000200EB070470A794B791B0213438A790D
:1031700012041A43CB791B0613430293426893420D
:1031800001D00020EDE70A7A4B7A1B0213438A7ABA
:1031900012041A43CB7A1B061343039382689342AB
:1031A00001D00020DDE70A7B4B7B1B0213438A7BA7
:1031B00012041A43CB7B1B0613430493C268934249
:1031C00001D00020CDE70A7C4B7C1B0213438A7C94
:1031D00012041A43CB7C1B061343059302699342E6
:1031E00001D00020BDE70A7D4B7D1B0213438A7D81
:1031F00012041A43CB7D1B06134306934269934284
:1032000001D00020ADE70A7E4B7E1B0213438A7E6D
:1032100012041A43CB7E1B06134307938269934221
:1032200001D000209DE70A7F4B7F1B0213438A7F5A
:1032300012041A43CB7F1B0613430893C2699342BF
:1032400001D000208DE72023CA5C0133CB5C1B0238
:10325000134322228A5C12041A432323CB5C1B06ED
:1032600013430993026A934201D0002079E7242393
:10327000CA5C0133CB5C1B02134326228A5C120416
:103280001A432723CB5C1B0613430A93426A9342DB
:1032900001D0002065E72823CA5C0133CB5C1B0208
:1032A00013432A228A5C12041A432B23CB5C1B068D
:1032B00013430B93826A934201D0002051E72C23E1
:1032C000CA5C0133CB5C1B0213432E228A5C1204BE
:1032D0001A432F23CB5C1B0613430C93C26A934201
:1032E00001D000203DE73023CA5C0133CB5C1B02D8
:1032F000134332228A5C12041A433323CB5C1B062D
:1033000013430D93026B934201D0002029E734232D
:10331000C25CCB5C9A4201D0002022E73523C25C1C
:10332000CB5C9A4201D000201BE73623C25CCB5C09
:103330009A4201D0002014E7012012E710B58EB0A8
:103340000A784B781B0213438A7812041A43CB780D
:103350001B061343019303600A794B791B02134345
:103360008A7912041A43CB791B06134302934360F4
:103370000A7A4B7A1B0213438A7A12041A43CB7AD5
:103380001B061343039383600A7B4B7B1B0213438F
:103390008A7B12041A43CB7B1B0613430493C3603E
:1033A0000A7C4B7C1B0213438A7C12041A43CB7C9D
:1033B0001B061343059303610A7D4B7D1B021343D8
:1033C0008A7D12041A43CB7D1B0613430693436187
:1033D0000A7E4B7E1B0213438A7E12041A43CB7E65
:1033E0001B061343079383610A7F4B7F1B02134322
:1033F0008A7F12041A43CB7F1B0613430893C361D1
:103400002023CA5C0133CB5C1B02134322228A5C5B
:1034100012041A432323CB5C1B0613430993036254
:103420002423CA5C0133CB5C1B02134326228A5C33
:1034300012041A432723CB5C1B0613430A934362EF
:103440002823CA5C0133CB5C1B0213432A228A5C0B
:1034500012041A432B23CB5C1B0613430B9383628A
:103460002C23CA5C0133CB5C1B0213432E228A5CE3
:1034700012041A432F23CB5C1B0613430C93C36225
:103480003023CA5C0133CB5C1B02134332228A5CBB
:1034900012041A433323CB5C1B0613430D930363BF
:1034A00034228B5C5C1EA341835401328B5C5C1E16
:1034B000A341835401328B5C591E8B4183540EB05F
:1034C00010BD86B00A784B781B0213438A78120429
:1034D0001A43CB781B06134301930268934202D030
:1034E000002006B070470A794B791B0213438A7992
:1034F00012041A43CB791B0613430293426893428A
:1035000001D00020EDE70A7A4B7A1B0213438A7A36
:1035100012041A43CB7A1B06134303938268934227
:1035200001D00020DDE70A7B4B7B1B0213438A7B23
:1035300012041A43CB7B1B0613430493C2689342C5
:1035400001D00020CDE70A7C4B7C1B0213438A7C10
:1035500012041A43CB7C1B06134305930269934262
:1035600001D00020BDE70120BBE786B00A784B7888
:103570001B0213438A7812041A43CB781B061343A9
:10358000019303600A794B791B0213438A79120471
:103590001A43CB791B061343029343600A7A4B7A92
:1035A0001B0213438A7A12041A43CB7A1B06134375
:1035B000039383600A7B4B7B1B0213438A7B1204B9
:1035C0001A43CB7B1B0613430493C3600A7C4B7CDA
:1035D0001B0213438A7C12041A43CB7C1B06134341
:1035E0000593036106B0704710B501230370FDF722
:1035F00021F90068043010BDF0B5C64600B582B0B0
:1036000080460D0016001F0008AB1C88FDF712F95C
:1036100000680368019400979F6833002A004146C0
:10362000B84702B080BCB846F0BDF0B5CE464746BC
:1036300080B583B080460C0091461D000AAB1E8801
:10364000FDF7F8F80068036801960095DF684B46BF
:1036500022004146B84733002A002100002013F021
:1036600045F903B0C0BCB946B046F0BDF8B504009A
:103670000D001600FDF7DEF8006803681F693300CF
:103680002A002100B847F8BD70B504000D00FDF711
:10369000D1F8006803685B692A002100984770BD73
:1036A00010B5FDF7C7F8006803689B69984710BD1F
:1036B00010B50400FDF7BEF800680368DB6921005F
:1036C000984710BD10B50400FDF7B4F80068036812
:1036D0001B6A2100984710BD10B5FDF7ABF80068D4
:1036E00003685B6A984710BD02006432BFF35B8FCA
:1036F0001170BFF35B8F03006333BFF35B8F1B78E5
:10370000BFF35B8FDBB2002B00D17047BFF35B8F41
:103710001378BFF35B8FDBB2002BF6D06523C35C5D
:10372000002BF2D06230BFF35B8F01230370BFF335
:103730005B8FEAE710B50400312200210FF022FE72
:10374000012323707E33A371E371237263727D3B87
:103750006377EC33A377DE3BE37722002F320F3B16
:103760001370023B5370023A012111705370023AF8
:1037700011705370023A11705370200010BD000098
:1037800010B50400302200210FF0FCFD0349232274
:1037900020000FF0FDFD200010BDC046A8C506109A
:1037A00070B5040006000025002D01DA200070BD70
:1037B0001322002130000FF0E5FD013D1336F3E741
:1037C00070B5050038200FF0E9FD04003822002113
:1037D0000FF0D8FD064B2360064B236020002430F9
:1037E000FFF7DEFF00232B602C60280070BDC04671
:1037F00080C50610F4D2061010B504000068002839
:1038000002D038210FF0DAFD00232360200010BD24
:1038100010B504000B6800220A60006823600028CD
:1038200002D024210FF0CAFD200010BD10B5040005
:103830000068002802D098210FF0C0FD002323600B
:10384000200010BD10B504000B6800220A6000685B
:103850002360002802D024210FF0B0FD200010BD0D
:1038600070B5050088200FF099FD04008822002122
:103870000FF088FD044B2360044B236000232B6072
:103880002C60280070BDC04680C5061028CA0610EE
:1038900010B504000068002802D088210FF08EFDCA
:1038A00000232360200010BD10B504000B68002227
:1038B0000A6000682360002802D024210FF07EFDFA
:1038C000200010BD70B5050028200FF067FD040032
:1038D000282200210FF056FD044B2360044B236087
:1038E00000232B602C60280070BDC04680C50610E8
:1038F0001CC6061010B504000068002802D028215C
:103900000FF05CFD00232360200010BD10B5040003
:103910000B6800220A6000682360002802D024217E
:103920000FF04CFD200010BD70B505002C200FF0ED
:1039300035FD04002C2200210FF024FD074B2360ED
:10394000074B236020002430064908220FF020FD99
:1039500000232B602C60280070BDC04680C5061077
:103960002CCD0610CCC5061010B504000068002848
:1039700002D02C210FF022FD00232360200010BD77
:1039800010B504000B6800220A600068236000285C
:1039900002D024210FF012FD200010BD70B50400EC
:1039A0000A4B03600A4B03600500243514220021F2
:1039B00028000FF0E7FC14236B7020003830082239
:1039C00000210FF0DFFC200070BDC04680C506104E
:1039D00074CE061070B5040040200FF0DFFC050027
:1039E000402200210FF0CEFC2800FFF7D7FF002374
:1039F00023602560200070BD10B504000068002819
:103A000002D040210FF0DAFC00232360200010BD1B
:103A100010B504000B6800220A60006823600028CB
:103A200002D024210FF0CAFC200010BD70B50400A4
:103A30000A4B03600A4B0360050024351422002161
:103A400028000FF09FFC14236B70200038300822F0
:103A500000210FF097FC200070BDC04680C5061005
:103A600024CF061070B5040040200FF097FC05002D
:103A7000402200210FF086FC2800FFF7D7FF00232B
:103A800023602560200070BD10B504000068002888
:103A900002D040210FF092FC00232360200010BDD3
:103AA00010B504000B6800220A600068236000283B
:103AB00002D024210FF082FC200010BD70B505005B
:103AC00040200FF06BFC0400402200210FF05AFC54
:103AD000044B2360044B236000232B602C602800E0
:103AE00070BDC04680C5061014D0061010B5040085
:103AF0000068002802D040210FF060FC0023236002
:103B0000200010BD10B504000B6800220A60006898
:103B10002360002802D024210FF050FC200010BDAB
:103B200070B5050080200FF039FC040080220021D0
:103B30000FF028FC094B2360094B236080231B02F4
:103B40006362A362C8235B00A3855D3BFF3B012248
:103B5000E25400232B602C60280070BD80C5061045
:103B600098D0061010B504000068002802D080210B
:103B70000FF024FC00232360200010BD10B50400CA
:103B80000B6800220A6000682360002802D024210C
:103B90000FF014FC200010BD70B5050030200FF0B0
:103BA000FDFB0400302200210FF0ECFB044B2360EE
:103BB000044B236000232B602C60280070BDC0469E
:103BC00080C5061040D2061010B504000068002819
:103BD00002D030210FF0F2FB00232360200010BD43
:103BE00010B504000B6800220A60006823600028FA
:103BF00002D024210FF0E2FB200010BD10B504001C
:103C00000068002802D0E8210FF0D8FB00232360D1
:103C1000200010BD10B504000B6800220A60006887
:103C20002360002802D024210FF0C8FB200010BD23
:103C300070B50600016001240FE0631E9B009A59D5
:103C4000930F53400A4D5D439C21890020000EF0E4
:103C500089FA6D18A3009D5101349C239B009C425E
:103C6000EBD39C231B019C229200F25070BDC046F6
:103C70006589076C10B50400064B0360064B0360B2
:103C8000FDF722FA606220002830FFF7CBF8200011
:103C900010BDC04680C5061044D4061070B504009F
:103CA000E8200FF07BFB0500E82200210FF06AFB03
:103CB0002800FFF7DFFF002323602560200070BD90
:103CC00070B5002203E07140920011502200E22AF8
:103CD00017D893001B58DB0FDB07541CA1000958B1
:103CE000490049080B4311008E31FF318900095802
:103CF0005D08694001252E001E401D42E3D01E4E86
:103D0000E1E7E32203E071409200115022001B4BD7
:103D10009A4216D893001B58DB0FDB07541CA100F6
:103D20000958490049080B431100E3398900095833
:103D30005D08694001252E001E401D42E3D00E4E55
:103D4000E1E70F4BC358DB0FDB0702685200520854
:103D50001343C622D200825859084A4001210C0060
:103D60001C40194200D0044C5440054A84509C2306
:103D70001B010022C25070BDDFB008996E02000026
:103D8000BC09000010B504009C231B01C2589C23F1
:103D90009B009A4213D29C221201A358591CA15095
:103DA0009B001A59D30A5340DA0106490A405A4087
:103DB000D30305490B405340980C584010BDFFF702
:103DC0007FFFE8E780562C9D0000C6EFF8B5CE4691
:103DD000474680B507000E00FFF7D4FF0023994641
:103DE000320000210FF0C8F804000D00864212D9FD
:103DF000704231000EF0B6F988460AE03800FFF74D
:103E0000C1FF02000023300049460FF0B5F804005E
:103E10000D004445F2D32800C0BCB946B046F8BDF9
:103E200010B50800140053881188591A4B1C07D08C
:103E30000131FFF7CBFF238880B2C01880B210BDDC
:103E4000FFF7A0FFF7E7000030B5174CA5440500C9
:103E50000230164911220FF09BFA154901A8FFF70D
:103E6000E7FE6B4600221A80FF325A80042408E0E5
:103E700068466A4601A9FFF7D3FF2B1998700134F1
:103E8000E4B2062CF4D9012408E068466A4601A988
:103E9000FFF7C6FF2B1958720134E4B2062CF4D98F
:103EA0002800044B9D4430BD34F6FFFFD4C50610F6
:103EB00039300000CC09000010B50400094B036044
:103EC000094B03602430FFF735FC20005530FFF725
:103ED00057FC20008530FFF7B7FF97230022E254FC
:103EE000200010BD80C506106CC7061070B5040018
:103EF00098200FF053FA0500982200210FF042FAA3
:103F00002800FFF7D9FF002323602560200070BD43
:103F100070B58CB0050016000A2909D8002900D117
:103F20009CE00A2900D999E089004D4B5B589F46D7
:103F3000642900D092E00BAC2000FFF7AFFE210017
:103F40002800FFF767FE2000FFF758FE82E001AC73
:103F50002000FFF735FC21002800FFF759FC200066
:103F6000FFF74AFC002473E002AC2000FFF7BEFF1D
:103F700021002800FFF766FC2000FFF757FCF1E75F
:103F800003AC2000FFF76CFC21002800FFF78CFC3D
:103F90002000FFF77DFCE5E704AC2000FFF792FC72
:103FA00021002800FFF7B2FC2000FFF7A3FC51E03E
:103FB00005AC2000FFF7B8FC21002800FFF7E0FC6B
:103FC0002000FFF7D1FC45E006AC2000FFF702FD22
:103FD00021002800FFF71CFD2000FFF70DFD39E050
:103FE00007AC2000FFF73EFD21002800FFF758FD39
:103FF0002000FFF749FD2DE008AC2000FFF75EFD33
:1040000021002800FFF77EFD2000FFF76FFDA9E7E4
:1040100009AC2000FFF784FD21002800FFF7AEFD6A
:104020002000FFF79FFD15E00AAC2000FFF7B4FD6C
:1040300021002800FFF7D4FD2000FFF7C5FD09E0AF
:10404000A0010019800030180121FFF74DFB013459
:10405000002CF5D0286803681B6898470CB070BD29
:104060004CC5061070B50E00002A06D0080058F0A6
:1040700061FA1F2802D91F2000E00120002305E07B
:104080005A1CF55C074B5400E552D3B28342F7D378
:10409000FF23034001335B000248C0229200134318
:1040A000038070BDC076002010B5044B043016CBE1
:1040B00016C016CB16C006CB06C010BDF0C6061043
:1040C0007047002070470000004870479CC60610EB
:1040D0000048704744C606100048704778C606106E
:1040E0000020704710B501002431022202980FF021
:1040F0004FF9022010BD000010B50A00024B8900E4
:10410000C958FFF7AFFF10BDB0C6061070B586B036
:1041100004000D00110013006033BFF35B8F1B78A8
:10412000BFF35B8FDBB2002B0CD111F091FA0028AA
:1041300000D0E9E0280012F0B7FB002800D0E6E04C
:1041400006B070BD6E466846FEF7AEF833780A2BAF
:1041500022D89B00724AD3589F468023DB00A38459
:104160001DE090239B01A38419E080235B01A384BD
:1041700015E0C0235B01A38411E00023A3840EE0BB
:1041800080231B01A3840AE080239B01A38406E013
:10419000A0239B01A38402E0A0235B01A3846B46C0
:1041A000019909020914DA791B7A1B0213431B04D3
:1041B0001B145C4A93422CD05B421AB26B460298A5
:1041C00000020014DE7A1B7B1B0233431B041B140A
:1041D000544EB3421FD05B421BB2534EB1421CDC63
:1041E000B0421ADC514EB14274DB5049884271DB57
:1041F0008A4200DA84E04D498B4200DA80E04A4985
:104200008A4202DC484A934219DD8023DB00A38402
:1042100015E0474AD2E7464BDFE746498A420BDBC7
:104220008B4209DB44498A4250DC434A93424DDCCD
:10423000C0235B01A38402E0A0239B01A384009A16
:104240001202130CD20303D5A28C04210A43A284C8
:104250009A0703D5A28C02210A43A2845A0703D5E8
:10426000A28C08210A43A2841A0703D5A28C01213B
:104270000A43A284DA0503D5A28C40210A43A28412
:104280009A0503D5A28C80210A43A2845A0604D53C
:10429000A18C802252000A43A2841B0604D5A28C62
:1042A00080239B001343A3846B46DB78002B03D051
:1042B000A38C10221343A3846B461B79002B00D1DF
:1042C00033E7A38C20221343A3842EE780231B0112
:1042D000A384B4E717498A420BDB8B4209DB1649FA
:1042E0008A420ADC144A934207DC80235B01A384E0
:1042F000A5E780239B01A384A1E70023A3849EE775
:1043000090239B01A3849AE711F0AAF912E72200F7
:10431000243202230021280012F0E8FA10E7C046F8
:10432000E8C506100080FFFF0F270000F1D8FFFF4F
:10433000FF7F0000E1B1FFFF1F4E000010B5044BEE
:10434000043016CB16C016CB16C006CB06C010BD67
:10435000D4C90610002070470048704784C9061071
:1043600000487047F0C8061000487047C4C80610DF
:104370000020704770B5040004A920C90E88012BE5
:1043800003D0032B09D0002070BD0100243131225D
:1043900028000EF0FDFF3120F6E7012A0DD0002A9B
:1043A00046D0F82A46D8EF2A46D31132D3B2092B89
:1043B00044D89A00224B9B589F462249320028003D
:1043C0000EF0E6FF3000DFE71F49320028000EF054
:1043D000DFFF9623E35CAB713000D5E70100853148
:1043E000320028000EF0D4FF3000CDE7174932002C
:1043F00028000EF0CDFF002305E05A1CE3188E3391
:104400001B78AB54D3B2052BF7D93000BCE7104969
:10441000320028000EF0BCFF3000B5E70D49320035
:1044200028000EF0B5FF9623E35CAB713000ABE7DC
:104430000020A9E70020A7E70020A5E70020A3E7C8
:1044400010C7061084C8061054C8061014C80610F9
:10445000D4C7061094C7061010B502AC02CC24884D
:10446000032B02D0022B06D010BDEF2AFCD18A7993
:104470009333C254F8E7002A05D1002C03D00A7800
:10448000013CA4B20131012AEED19723C254553028
:10449000302C03D822000EF07BFFE5E73024F9E74B
:1044A00010B50A00024B8900C958FFF7DBFD10BDAB
:1044B00098C9061070B504000D00060034363000AF
:1044C00063F02AFA20004430022229000EF060FF37
:1044D0006134BFF35B8F01232370BFF35B8F300028
:1044E00063F042F970BD0000F0B5DE4657464E4617
:1044F0004546E0B597B00400150013006033BFF3E4
:104500005B8F1B78BFF35B8FDBB2002B16D111F0F2
:104510009FF8002800D0CDE1002012F0C5F9002856
:1045200000D0CAE19723E35C002B00D0CDE117B0A7
:10453000F0BCBB46B246A946A046F0BD03AE110092
:104540003000FDF7B1FE09AF3800FFF7F3F82000A7
:104550002430312239000EF01BFF36780A2E06D89F
:10456000B300D04AD3589F4626231022E254039B1F
:104570001B021B0C04221100194088461A4204D069
:104580002721605C843A02436254012211001940E1
:1045900089461A4204D02721625C402002436254BB
:1045A0000822110019408B461A4204D02721625C70
:1045B0001020024362540222110019408A461A4216
:1045C00004D02721625C20200243625480225200E2
:1045D000190011400191134204D02721625C04208C
:1045E00002436254802292001F001740134204D0FD
:1045F0002721625C0820024362545A0604D5262112
:10460000625C0120024362541A0604D52621625CD2
:10461000082002436254DA0604D52621625C022097
:10462000024362549A0604D52621625C04200243A8
:1046300062545A0504D52821625C01200243625469
:104640001B0504D52822A35C02210B43A35403AB12
:10465000DA78002A04D02721635C012003436354E5
:1046600003AB1B79002B08D02721605C02218C460C
:104670006146084301002720215436216254372225
:10468000A354049B1B021B14874A934204DBCD22D4
:10469000D200934200DAB1E08022120294466344D1
:1046A000D801C01A400081490DF034FDC0B22A2360
:1046B000E05403ABDA791B7A1B0213431B041B146F
:1046C000794A934204DBCD22D200934200DA97E08C
:1046D0008022120294466344D801C01A40007349F4
:1046E0000DF018FDC0B22B23E054059B1B021B14D8
:1046F0006D4A934204DBCD22D200934200DA81E07E
:104700008022120294466344D801C01A40006749CF
:104710000DF000FDC0B22C23E05403ABDA7A1B7B12
:104720001B0213431B041B145F4A934203DBCD227D
:10473000D200934268DB8022120294466344D8017F
:10474000C01A400059490DF0E5FCC0B22D23E054D9
:104750002B0062331B78DBB2002B57D003AB197DE3
:104760003A22A154997C0132A154597C0132A154BE
:10477000D97C0132A154997D043AA1545A7D382341
:10478000E254373B1A003240334200D0FF2232233A
:10479000E254303B1A003240334200D0FF2234232F
:1047A000E2542C3B1A003240334200D0FF22332324
:1047B000E2542F3B1A003240334200D0FF2235230F
:1047C000E254A4E626234022E254D0E626238022A7
:1047D000E254CCE626232022E254C8E62623902287
:1047E000E254C4E626233022E254C0E62623C02247
:1047F000E254BCE626236022E254B8E67F2056E766
:104800007F2070E77F2086E77F209FE7012211004D
:104810003140324200D0FF213222A154303A1100FF
:104820003140324200D0FF213422A1542C3A1100F1
:104830003140324200D0FF213322A1542F3A1100DF
:104840003140324200D0FF213522A1545A46002A7D
:1048500020D0FF213A22A1545246002A1CD0FF2129
:104860003B22A1544A46002A18D0FF213C22A154E1
:104870004246002A14D0FF213D22A154002F17D018
:10488000FF213922A154019A002A00D0FF233822A7
:10489000A3543CE61900DDE71900E1E71900E5E75C
:1048A0001900E9E738C7061099F9FFFFFFFF00007C
:1048B0001900E6E710F0D4FE2EE622002432312360
:1048C0000021002012F012F82CE609AB00221A8019
:1048D0005932A25C1A705723E35C002B00D0FF23EF
:1048E00009A94B702800FFF7E5FD97230022E25449
:1048F0001DE6C04610B5044B043016CB16C016CBCF
:1049000016C006CB06C010BDD8CC061000207047DC
:104910000048704778CC0610004870477CCA0610E3
:104920000048704750CA06100020704770B504AAAE
:1049300020CA1488012B03D0032B09D0002070BD9E
:1049400001002431402228000EF022FD4020F6E72D
:104950002200002128000EF015FD2000EFE770B5C1
:1049600004AC02CC2488022B00D070BD052A0BD0E9
:10497000002AFAD1002CF8D00B78052BF5D17F3323
:104980000132C254013104E082330125C554002AAA
:1049900001D1013CA4B26430202C03D822000EF0D7
:1049A000F7FCE2E72024F9E710B50A00024B890082
:1049B000C958FFF757FB10BD8CCC0610F0B587B077
:1049C0000400150013006033BFF35B8F1B78BFF347
:1049D0005B8FDBB2002B11D110F03AFE002800D023
:1049E0001CE1002011F060FF002800D019E18423B1
:1049F000E35C002B00D01CE107B0F0BD110068465D
:104A0000FDF752FC20002430402200210EF0BAFCB9
:104A100024230122E2540198000200148D4B984295
:104A200003DBCD23DB00984259DB80231B029C462D
:104A300060440221FF310DF06DFBC0B22523E0542C
:104A40006B46DA79187A0002104300040014814B97
:104A5000984203DBCD23DB00984242DB80231B021C
:104A60009C4660440221FF310DF054FBC0B2262366
:104A7000E054029800020014764B984203DBCD23E9
:104A8000DB0098422FDB80231B029C4660440221FE
:104A9000FF310DF03FFBC0B22723E0546B46DA7ABA
:104AA000187B00021043000400146A4B984203DB99
:104AB000CD23DB00984218DB80231B029C46604418
:104AC0000221FF310DF026FBC0B22823E0546B46D3
:104AD0001B780A2B27D89B005F4AD3589F4680201B
:104AE000ACE78020C3E78020D6E78020EDE72923CC
:104AF0000122E2541AE029230222E25416E029237B
:104B00000322E25412E029230422E2540EE0292376
:104B10000522E2540AE029230622E25406E0292372
:104B20000722E25402E029230822E254009A1202EA
:104B3000130C520304D52921625C102002436254F5
:104B4000DA0704D52921625C2020024362549A07C7
:104B500004D52921625C4020024362541A0705D51E
:104B60002921605C8022524202436254DA0502D558
:104B70002A220121A1549A0504D52A21625C02202F
:104B8000024362546A46D078002804D02A21625C2D
:104B90000426324362546A461179002904D02A2639
:104BA000A25D08273A43A2555A0604D52A26A25DDB
:104BB00010273A43A2551A0604D52A26A25D2027BB
:104BC0003A43A255DA0604D52A26A25D40273A4385
:104BD000A2559A0605D52A26A75D802252423A435D
:104BE000A2555A0502D52B220126A6541B0504D531
:104BF0002B22A35C02263343A3548522A35C5E1CB4
:104C0000A6542B26A25D9B001343A3552C23E054EE
:104C10000133E15415330B22E254DDE610F020FDA0
:104C2000DFE62200243240230021002011F05EFE46
:104C3000DDE6694600230B806833E35C0B70672375
:104C4000E35C4B702800FFF735FC00228423E2541C
:104C5000D2E6C04699F9FFFFF4C9061030B583B01B
:104C60000500114B021D13CB13C213CB13C203CB90
:104C700003C26C460822002168460EF083FB08231D
:104C8000A3707833E37023716371A3712C00243413
:104C90002C3505E00822694620000EF079FB083427
:104CA000A542F7D103B030BD20CE061070470020DA
:104CB0007047000000487047D0CD0610004870478C
:104CC00078CD06100048704754CD0610002070477C
:104CD00010B5012B0CD1002901D0002009E02430AF
:104CE000C9004118082202980EF052FB082000E08B
:104CF000002010BD10B50A00024B8900C958FFF70B
:104D0000B1F910BDE4CD0610F0B587B004000D0078
:104D1000110006002436EB00F61813006033BFF3D1
:104D20005B8F1B78BFF35B8FDBB2002B0CD110F0D5
:104D30008FFC002800D05CE1280011F0B5FD0028B0
:104D400000D059E107B0F0BD6F466846FDF7ACFAF8
:104D50003B780A2B3BD89B00AB4AD3589F46230095
:104D60002433EA009B1800229A7036E02300243393
:104D7000EA009B1804229A702FE023002433EA00F3
:104D80009B1806229A7028E023002433EA009B181F
:104D900002229A7021E023002433EA009B180722A4
:104DA0009A701AE023002433EA009B1801229A70BB
:104DB00013E023002433EA009B1805229A700CE0CC
:104DC00023002433EA009B1803229A7005E0230095
:104DD0002433EA009B1808229A70EB00E31824336E
:104DE00000221A705A70009A1202130C520306D550
:104DF000EA00A21824320121117000215170DA0753
:104E00000ED5E9006118243108784A78120202436D
:104E10000220024390B2FF273A400A70000A48700D
:104E20001A070ED5E9006118243108784A78120271
:104E300002430820024390B2FF273A400A70000A5A
:104E400048709A070ED5E9006118243108784A782D
:104E5000120202430420024390B2FF273A400A7034
:104E6000000A4870DA050ED5E90061182431087887
:104E70004A78120202431020024390B2FF273A40C0
:104E80000A70000A48709A050ED5E90061182431AD
:104E900008784A78120202432020024390B2FF278A
:104EA0003A400A70000A48705A060CD5EA00A21867
:104EB00024321178507800020843802149000143D0
:104EC0001170090A51701A060CD5EA00A218243292
:104ED0001178507800020843802189000143117045
:104EE000090A5170DA060CD5EA00A21824321178AA
:104EF0005078000208438021C90001431170090A5B
:104F000051709A060CD5EA00A21824321178507814
:104F1000000208438021090101431170090A517000
:104F20005A050CD5EA00A2182432117850780002F4
:104F300008438021490101431170090A51701B0582
:104F40000CD5EB00E31824331A7859780902114381
:104F5000802292010A431A70120A5A706B46DB785B
:104F6000002B0ED0EA00A2182432117853781B02CD
:104F70000B4340210B4399B2FF2003401370090AF1
:104F800051706B461B79002B0ED0EA00A218243218
:104F9000117853781B020B4380210B4399B2FF20F9
:104FA00003401370090A51706A46019B1B021B0CD7
:104FB00016498C4663449BB21B0A2434E9006418EA
:104FC000E370D179137A1B020B4363449BB21B0A33
:104FD0002371029B1B021B0C63449BB21B0A63716F
:104FE000D17A137B1B020B4363449BB21B0AA37150
:104FF0009DE610F035FB9FE60823320000212800D3
:1050000011F074FC9EE6C046F8CC06100080FFFF4D
:10501000704700207047000000487047CCCE061053
:1050200000207047004870479CCE06100020704753
:1050300010B5040001F0D0FD231D16C816C316C814
:1050400016C306C806C310BD10B5010024311422D2
:1050500002980EF09DF9142010BD000010B50A0052
:10506000024B8900C958FEF7FDFF10BDE0CE0610C7
:1050700070B586B00400150013006033BFF35B8F7A
:105080001B78BFF35B8FDBB2002B0DD120003830D3
:10509000082101F005FE002804D03823E35C002B32
:1050A00000D1BCE006B070BD00232622835401323B
:1050B00083546E4629006846FDF7F6F833780A2BCC
:1050C00006D89B005C4AD3589F4626230122E2540F
:1050D000009A1202130C520204D52621625C202091
:1050E000024362541A0604D52621625C1020024352
:1050F0006254DA0604D52621625C402002436254E1
:105100009A0605D52621605C8022524202436254F1
:105110005A0704D52721625C402002436254DA0713
:1051200004D52721625C1020024362541A0705D57A
:105130002721605C80225242024362549A0704D5C0
:105140002721625C202002436254DA0504D527211E
:10515000625C0120024362549A0504D52721625CF7
:105160000220024362545B0504D52722A35C04217C
:105170000B43A3546B46D9782822A15419790132E4
:10518000A154019A120212146285DA791B7A1B0269
:1051900013431B041B14294A934239D05B421BB2B0
:1051A000A3856A46029B1B021B14E385D17A137BFD
:1051B0001B020B431B041B14204A93422AD05B4260
:1051C0001BB2238610F044FA002825D12000243099
:1051D000142101F03DFD59E726230222E25477E72E
:1051E00026230422E25473E726230822E2546FE7C1
:1051F00026230522E2546BE726230922E25467E7BF
:1052000026230622E25463E726230A22E2545FE7BC
:105210000B4BC5E70A4BD4E710F022FAD6E76946F4
:105220000B803B33E35C0B703C23E35C4B7028004A
:10523000FFF740F936E7C04640CE06100080FFFF7A
:10524000FF7F000070470020704700000048704753
:105250007CCF061000207047004870474CCF0610E6
:105260000020704710B5040001F0B6FC231D16C8DD
:1052700016C316C816C306C806C310BD10B5010074
:105280002431142202980EF083F8142010BD00007F
:1052900010B50A00024B8900C958FEF7E3FE10BDA5
:1052A00090CF061070B586B004001500130060336F
:1052B000BFF35B8F1B78BFF35B8FDBB2002B0DD18D
:1052C00020003830082101F0EBFC002804D03823FE
:1052D000E35C002B00D19AE006B070BD00232622CB
:1052E00083540132835401328354013283546E4615
:1052F00029006846FCF7D8FF3378DA0704D5262161
:10530000625C0120024362549A0704D52621625C44
:105310000220024362545A0704D52621625C04200D
:10532000024362541B0704D52622A35C08210B43C9
:10533000A354009A1202130C520204D52621625C77
:105340002020024362541A0604D52621625C1020F4
:10535000024362545A0504D52721625C04200243AB
:105360006254DA0704D52721625C2020024362548C
:105370009A0704D52721625C1020024362545A0721
:1053800004D52721625C4020024362541A0705D5E8
:105390002721605C8022524202436254DB0504D51F
:1053A0002722A35C01210B43A354019B1B021B1466
:1053B00063850023A385029B1B021B14FA221201A2
:1053C000934217DDE3856B46DA7A1B7B1B0213439E
:1053D0001B041B14144A934214D05B421BB2238655
:1053E00010F036F900280FD120002430142101F0EC
:1053F0002FFC65E70D4A934201DAE385E3E70023DA
:10540000E385E0E70A4BEAE710F02AF9ECE76946A2
:105410000B803B33E35C0B703C23E35C4B70280058
:10542000FFF748F858E7C0460080FFFF60F0FFFF35
:10543000FF7F000070470000004870475CD00610F6
:1054400000207047004870473CD00610002070478D
:1054500070B50C0015001E0001F06EFD43693200AE
:1054600029002000984770BD70B50400002001F0AD
:105470005DFD01F061FD231D26C826C326C826C395
:1054800006C806C320002430142200210DF07AFF44
:1054900014222523E25470BD10B5010024311422DA
:1054A00002980DF075FF142010BD000010B50A0021
:1054B000024B8900C958FEF7D5FD10BD70D006100B
:1054C00070B586B00400150013006033BFF35B8F26
:1054D0001B78BFF35B8FDBB2002B0AD12100383180
:1054E0000622002001F08CFD002800D0C9E006B0A3
:1054F00070BD0822002126300DF044FF6E462900C1
:105500006846FCF7D1FE33780A2B06D89B00634A25
:10551000D3589F4626230122E254009A1202130C0C
:10552000520204D52621625C2020024362541A06EE
:1055300004D52621625C102002436254DA0604D5A9
:105540002621625C4020024362549A0605D526213A
:10555000605C80225242024362542A006232127816
:10556000D2B2002A67D06B46597C2822A154997C7C
:105570000132A154D97C0132A154197D0132A154C8
:10558000597D0232A1549A7D2C23E2546B46D9787E
:105590002E22A15419790132A154019A1202121437
:1055A0002286DA791B7A1B0213431B041B143C4A24
:1055B00093425FD05B421BB263866A46029B1B022A
:1055C0001B14A386D17A137B1B020B431B041B14F1
:1055D000334A934250D05B421BB2E38610F038F856
:1055E00000284BD1002001F0ABFC002800D175E76A
:1055F000210024311422002001F0CAFC6EE726238A
:105600000222E25489E726230422E25485E7262376
:105610000822E25481E726230522E2547DE726236F
:105620000922E25479E726230622E25475E726236D
:105630000A22E25471E75A0702D52A22FF21A15417
:10564000DA0702D52822FF21A1541A0702D52B22FE
:10565000FF21A1549A0702D52922FF21A154DA057E
:1056600002D52D22FF21A1549B058FD52C23FF228B
:10567000E2548BE70B4B9FE70A4BAEE70FF0F0FFCE
:10568000B0E7694600230B80638F1B0A0B70A38F62
:105690001B0A4B702800FEF70DFF28E7E0CF06102D
:1056A0000080FFFFFF7F0000704700000048704748
:1056B00024D206100020704700487047E4D106103D
:1056C0000020704770B50C0015001E0001F034FC7E
:1056D0004369320029002000984770BD70B504006E
:1056E000012001F023FC01F027FC231D020023CA46
:1056F00023C323CA23C303CA03C3250035351A2293
:10570000002128000DF03EFE1A223623E254183301
:10571000123AE25420004F30123229000DF038FEC8
:1057200070BD10B5010035311A2202980DF030FE1F
:105730001A2010BD10B50A00024B8900C958FEF7A7
:1057400091FC10BD04D2061070B582B004000600B2
:105750003C36300062F0E0F86D4621005D310322F6
:1057600068460DF015FE300061F0FEFF01AB2A889F
:105770001A80AA789A705A781202187810439B7887
:105780001B04024A1040184302B070BDFFFF00FF27
:1057900030B50300C51C002202E01C781219013349
:1057A000AB42FAD1002A0ED0102902D80378194250
:1057B0000BD110290BD943788B420AD083789942B8
:1057C00009D0002000E0002030BD0120FCE70020CF
:1057D000FAE70120F8E70120F6E70000F0B589B00C
:1057E00005001600110002A8FCF75EFD3000FFF76F
:1057F000ABFF01AB18700204120E5A700002000ECB
:1058000098702B00373300221A705A7002331A70C6
:105810005A703B23EA5C0133EB5C1B0213432A0002
:105820003B3203218B4313701B0A5370C64900E0BF
:105830000631C64B994213D0029B1B021B0C0A88EF
:105840001A42F5D00B7918335B00EB18D8791A7A25
:105850001202024348880243DA71120A1A72E7E719
:10586000BB4C00E00634BB4B9C4213D0218801A8FE
:10587000FFF78EFF0028F5D0237918335B00EB1873
:10588000DA79197A0902114362881143D971090A38
:105890001972E7E7002404E0AF4B00221A550134E7
:1058A000E4B2042C23D8AD4A63001B195B00995A5B
:1058B00001A8FFF76DFF0028EED0A74B1B5D002B62
:1058C000EDD1A64B6200121952009B1859881B7922
:1058D00018335B00EB18D8791A7A120202434A4057
:1058E000DA71120A1A729C4B01221A55D7E701216C
:1058F00001A8FFF74DFF002823D0974B5B79002BC1
:1059000022D13B33EA5C0133EB5C1B021343032BD4
:105910000AD903221A402B003B331A7000225A7016
:105920008D4B01225A710FE004225242134399B267
:105930000432FF3213402A003B321370090A5170BF
:10594000EEE7854B00225A71029B1B021F0C5B0382
:1059500030D57223EB5C1B070CD0AB6B1B021B0C0E
:105960000222134399B2FF2213402A0039321370E6
:10597000090A51707723EB5C1B070AD0AA6B12024D
:10598000120C80231B0113432A00393213701B0AA7
:1059900053707123EB5C0F2B0CD9AB6B1B021B0CF0
:1059A0000122134399B2FF2213402A0039321370A7
:1059B000090A5170082101A8FFF7EAFE002824D146
:1059C0007B0624D4042101A8FFF7E2FE002800D0C2
:1059D000A1E034230122EA5433E00634604B9C42B8
:1059E00017D0218801A8FFF7D3FE0028F5D023792E
:1059F00018335B00EB18D9791A7A12020A436188CE
:105A00000A43DA71120A1A72E7E7564CE6E7554C78
:105A1000E4E702AB1B780122100018401A4243D081
:105A20003332AA5C002A3FD04D202B560133D917C0
:105A3000090F5B180F2213405B1A2B5434230022EA
:105A4000EA5402ABD97847220020A8542A004732F2
:105A500051701A794B230021E9542B004B335A70B3
:105A6000713101A8FFF794FE002800D1A0E0FF23C8
:105A70001B0249220021A9541B0A2A0049325370F3
:105A8000083101A8FFF784FE002800D092E07B06D1
:105A900000D5FEE002AB1B785A0700D5FBE01B07E0
:105AA00000D4FAE0304B86E00222110019401A427D
:105AB00011D03423EB5C002B0DD04D202B560F332F
:105AC000D917090F5B180D3213405B1A2B5434237E
:105AD0000022EA54B5E70029B3D10028B1D134231C
